{
  "contractName": "Contribution",
  "abi": [
    {
      "inputs": [
        {
          "internalType": "contract HotToken",
          "name": "_hotToken",
          "type": "address"
        }
      ],
      "stateMutability": "payable",
      "type": "constructor"
    },
    {
      "inputs": [
        {
          "internalType": "address",
          "name": "",
          "type": "address"
        }
      ],
      "name": "donationBalance",
      "outputs": [
        {
          "internalType": "uint256",
          "name": "",
          "type": "uint256"
        }
      ],
      "stateMutability": "view",
      "type": "function"
    },
    {
      "inputs": [
        {
          "internalType": "uint256",
          "name": "",
          "type": "uint256"
        }
      ],
      "name": "donationNames",
      "outputs": [
        {
          "internalType": "address",
          "name": "",
          "type": "address"
        }
      ],
      "stateMutability": "view",
      "type": "function"
    },
    {
      "inputs": [
        {
          "internalType": "address",
          "name": "",
          "type": "address"
        }
      ],
      "name": "hasDonated",
      "outputs": [
        {
          "internalType": "bool",
          "name": "",
          "type": "bool"
        }
      ],
      "stateMutability": "view",
      "type": "function"
    },
    {
      "inputs": [],
      "name": "hotToken",
      "outputs": [
        {
          "internalType": "contract HotToken",
          "name": "",
          "type": "address"
        }
      ],
      "stateMutability": "view",
      "type": "function"
    },
    {
      "inputs": [
        {
          "internalType": "address",
          "name": "",
          "type": "address"
        }
      ],
      "name": "isDonating",
      "outputs": [
        {
          "internalType": "bool",
          "name": "",
          "type": "bool"
        }
      ],
      "stateMutability": "view",
      "type": "function"
    },
    {
      "inputs": [],
      "name": "name",
      "outputs": [
        {
          "internalType": "string",
          "name": "",
          "type": "string"
        }
      ],
      "stateMutability": "view",
      "type": "function"
    },
    {
      "inputs": [],
      "name": "owner",
      "outputs": [
        {
          "internalType": "address",
          "name": "",
          "type": "address"
        }
      ],
      "stateMutability": "view",
      "type": "function"
    },
    {
      "inputs": [
        {
          "internalType": "uint256",
          "name": "_amount",
          "type": "uint256"
        }
      ],
      "name": "donateTokens",
      "outputs": [],
      "stateMutability": "nonpayable",
      "type": "function"
    }
  ],
  "bytecode": "0x60806040526040518060400160405280600681526020017f446f6e6174650000000000000000000000000000000000000000000000000000815250600090805190602001906200005192919062000100565b5060405162000ddd38038062000ddd8339818101604052810190620000779190620001c7565b80600260006101000a81548173ffffffffffffffffffffffffffffffffffffffff021916908373ffffffffffffffffffffffffffffffffffffffff16021790555033600160006101000a81548173ffffffffffffffffffffffffffffffffffffffff021916908373ffffffffffffffffffffffffffffffffffffffff16021790555050620002c5565b8280546200010e9062000241565b90600052602060002090601f0160209004810192826200013257600085556200017e565b82601f106200014d57805160ff19168380011785556200017e565b828001600101855582156200017e579182015b828111156200017d57825182559160200191906001019062000160565b5b5090506200018d919062000191565b5090565b5b80821115620001ac57600081600090555060010162000192565b5090565b600081519050620001c181620002ab565b92915050565b600060208284031215620001e057620001df620002a6565b5b6000620001f084828501620001b0565b91505092915050565b6000620002068262000221565b9050919050565b60006200021a82620001f9565b9050919050565b600073ffffffffffffffffffffffffffffffffffffffff82169050919050565b600060028204905060018216806200025a57607f821691505b6020821081141562000271576200027062000277565b5b50919050565b7f4e487b7100000000000000000000000000000000000000000000000000000000600052602260045260246000fd5b600080fd5b620002b6816200020d565b8114620002c257600080fd5b50565b610b0880620002d56000396000f3fe608060405234801561001057600080fd5b50600436106100a5576000357c0100000000000000000000000000000000000000000000000000000000900480636107e50e116100785780636107e50e146101585780638da5cb5b14610176578063c31f230114610194578063c637b534146101b0576100a5565b806306fdde03146100aa57806317294a11146100c8578063219130f3146100f85780633b8a5e2714610128575b600080fd5b6100b26101e0565b6040516100bf919061083e565b60405180910390f35b6100e260048036038101906100dd9190610697565b61026e565b6040516100ef9190610808565b60405180910390f35b610112600480360381019061010d91906106f1565b61028e565b60405161011f91906107b6565b60405180910390f35b610142600480360381019061013d9190610697565b6102cd565b60405161014f9190610880565b60405180910390f35b6101606102e5565b60405161016d9190610823565b60405180910390f35b61017e61030b565b60405161018b91906107b6565b60405180910390f35b6101ae60048036038101906101a991906106f1565b610331565b005b6101ca60048036038101906101c59190610697565b610638565b6040516101d79190610808565b60405180910390f35b600080546101ed906109be565b80601f0160208091040260200160405190810160405280929190818152602001828054610219906109be565b80156102665780601f1061023b57610100808354040283529160200191610266565b820191906000526020600020905b81548152906001019060200180831161024957829003601f168201915b505050505081565b60056020528060005260406000206000915054906101000a900460ff1681565b6003818154811061029e57600080fd5b906000526020600020016000915054906101000a900473ffffffffffffffffffffffffffffffffffffffff1681565b60046020528060005260406000206000915090505481565b600260009054906101000a900473ffffffffffffffffffffffffffffffffffffffff1681565b600160009054906101000a900473ffffffffffffffffffffffffffffffffffffffff1681565b60008111610374576040517f08c379a000000000000000000000000000000000000000000000000000000000815260040161036b90610860565b60405180910390fd5b600260009054906101000a900473ffffffffffffffffffffffffffffffffffffffff1673ffffffffffffffffffffffffffffffffffffffff166323b872dd3330846040518463ffffffff167c01000000000000000000000000000000000000000000000000000000000281526004016103ef939291906107d1565b602060405180830381600087803b15801561040957600080fd5b505af115801561041d573d6000803e3d6000fd5b505050506040513d601f19601f8201168201806040525081019061044191906106c4565b5080600460003373ffffffffffffffffffffffffffffffffffffffff1673ffffffffffffffffffffffffffffffffffffffff1681526020019081526020016000205461048d91906108b7565b600460003373ffffffffffffffffffffffffffffffffffffffff1673ffffffffffffffffffffffffffffffffffffffff16815260200190815260200160002081905550600560003373ffffffffffffffffffffffffffffffffffffffff1673ffffffffffffffffffffffffffffffffffffffff16815260200190815260200160002060009054906101000a900460ff16610585576003339080600181540180825580915050600190039060005260206000200160009091909190916101000a81548173ffffffffffffffffffffffffffffffffffffffff021916908373ffffffffffffffffffffffffffffffffffffffff1602179055505b6001600660003373ffffffffffffffffffffffffffffffffffffffff1673ffffffffffffffffffffffffffffffffffffffff16815260200190815260200160002060006101000a81548160ff0219169083151502179055506001600560003373ffffffffffffffffffffffffffffffffffffffff1673ffffffffffffffffffffffffffffffffffffffff16815260200190815260200160002060006101000a81548160ff02191690831515021790555050565b60066020528060005260406000206000915054906101000a900460ff1681565b60008135905061066781610a8d565b92915050565b60008151905061067c81610aa4565b92915050565b60008135905061069181610abb565b92915050565b6000602082840312156106ad576106ac610a4e565b5b60006106bb84828501610658565b91505092915050565b6000602082840312156106da576106d9610a4e565b5b60006106e88482850161066d565b91505092915050565b60006020828403121561070757610706610a4e565b5b600061071584828501610682565b91505092915050565b6107278161090d565b82525050565b6107368161091f565b82525050565b61074581610955565b82525050565b60006107568261089b565b61076081856108a6565b935061077081856020860161098b565b61077981610a53565b840191505092915050565b60006107916012836108a6565b915061079c82610a64565b602082019050919050565b6107b08161094b565b82525050565b60006020820190506107cb600083018461071e565b92915050565b60006060820190506107e6600083018661071e565b6107f3602083018561071e565b61080060408301846107a7565b949350505050565b600060208201905061081d600083018461072d565b92915050565b6000602082019050610838600083018461073c565b92915050565b60006020820190508181036000830152610858818461074b565b905092915050565b6000602082019050818103600083015261087981610784565b9050919050565b600060208201905061089560008301846107a7565b92915050565b600081519050919050565b600082825260208201905092915050565b60006108c28261094b565b91506108cd8361094b565b9250827fffffffffffffffffffffffffffffffffffffffffffffffffffffffffffffffff03821115610902576109016109f0565b5b828201905092915050565b60006109188261092b565b9050919050565b60008115159050919050565b600073ffffffffffffffffffffffffffffffffffffffff82169050919050565b6000819050919050565b600061096082610967565b9050919050565b600061097282610979565b9050919050565b60006109848261092b565b9050919050565b60005b838110156109a957808201518184015260208101905061098e565b838111156109b8576000848401525b50505050565b600060028204905060018216806109d657607f821691505b602082108114156109ea576109e9610a1f565b5b50919050565b7f4e487b7100000000000000000000000000000000000000000000000000000000600052601160045260246000fd5b7f4e487b7100000000000000000000000000000000000000000000000000000000600052602260045260246000fd5b600080fd5b6000601f19601f8301169050919050565b7f616d6f756e742063616e6e6f7420626520300000000000000000000000000000600082015250565b610a968161090d565b8114610aa157600080fd5b50565b610aad8161091f565b8114610ab857600080fd5b50565b610ac48161094b565b8114610acf57600080fd5b5056fea2646970667358221220f01fa463882a9b41aae7cfb9075dc87f24b133b3b1ca8f304d057fe33cee85f964736f6c63430008070033",
  "immutableReferences": {},
  "source": "// SPDX-License-Identifier: MIT\r\n\r\npragma solidity ^0.8.0;\r\n\r\nimport \"./HotToken.sol\";\r\n\r\n contract Contribution {\r\n    string public name = \"Donate\";\r\n    address public owner;\r\n    HotToken public hotToken;\r\n\r\n\r\n    address[] public donationNames;\r\n    mapping(address => uint) public donationBalance;\r\n    mapping(address => bool) public hasDonated;\r\n    mapping(address => bool) public isDonating;\r\n\r\n    constructor(HotToken _hotToken) payable {\r\n        hotToken = _hotToken;\r\n        owner = msg.sender;\r\n    }\r\n   \r\n    function donateTokens(uint _amount) public {\r\n /*\r\n  * @dev Requires the owner to have more than 0 tokens to donate\r\n  */        require(_amount > 0, \"amount cannot be 0\");\r\n\r\n /*\r\n  * @dev Transfer Hot tokens to this contract for donations\r\n  */\r\n        hotToken.transferFrom(msg.sender, address(this), _amount);\r\n\r\n /*\r\n  * @dev Update donation balance\r\n  */\r\n        donationBalance[msg.sender] = donationBalance[msg.sender] + _amount;\r\n/*\r\n  * @dev Add user to donation array *only* if they haven't donated already\r\n  */\r\n        if(!hasDonated[msg.sender]) {\r\n            donationNames.push(msg.sender);\r\n        }\r\n/*\r\n  * @dev Update donation status\r\n  */\r\n        isDonating[msg.sender] = true;\r\n        hasDonated[msg.sender] = true;\r\n    }\r\n}",
  "sourcePath": "C:\\Users\\katan\\ethchallenge\\contracts\\Contribution.sol",
  "compiler": {
    "name": "solc",
    "version": "0.8.7+commit.e28d00a7.Emscripten.clang"
  },
  "schemaVersion": "3.4.3",
  "updatedAt": "2021-08-25T09:55:40.597Z",
  "devdoc": {
    "kind": "dev",
    "methods": {},
    "version": 1
  },
  "userdoc": {
    "kind": "user",
    "methods": {},
    "version": 1
  }
}