{
  "contractName": "MyToken",
  "abi": [
    {
      "inputs": [
        {
          "internalType": "address payable",
          "name": "_owner",
          "type": "address"
        },
        {
          "internalType": "uint256",
          "name": "_startTime",
          "type": "uint256"
        }
      ],
      "stateMutability": "nonpayable",
      "type": "constructor"
    },
    {
      "inputs": [],
      "name": "_endTime",
      "outputs": [
        {
          "internalType": "uint256",
          "name": "",
          "type": "uint256"
        }
      ],
      "stateMutability": "view",
      "type": "function"
    },
    {
      "inputs": [],
      "name": "duration",
      "outputs": [
        {
          "internalType": "uint256",
          "name": "",
          "type": "uint256"
        }
      ],
      "stateMutability": "view",
      "type": "function"
    },
    {
      "inputs": [],
      "name": "owner",
      "outputs": [
        {
          "internalType": "address payable",
          "name": "",
          "type": "address"
        }
      ],
      "stateMutability": "view",
      "type": "function"
    },
    {
      "stateMutability": "payable",
      "type": "receive"
    },
    {
      "inputs": [
        {
          "internalType": "address",
          "name": "token",
          "type": "address"
        },
        {
          "internalType": "uint256",
          "name": "amount",
          "type": "uint256"
        }
      ],
      "name": "deposit",
      "outputs": [],
      "stateMutability": "nonpayable",
      "type": "function"
    },
    {
      "inputs": [
        {
          "internalType": "address",
          "name": "token",
          "type": "address"
        },
        {
          "internalType": "uint256",
          "name": "amount",
          "type": "uint256"
        }
      ],
      "name": "withdraw",
      "outputs": [],
      "stateMutability": "nonpayable",
      "type": "function"
    }
  ],
  "bytecode": "0x60c06040523480156200001157600080fd5b5060405162000a8a38038062000a8a8339818101604052810190620000379190620000cc565b6301e133804262000049919062000113565b608081815250508173ffffffffffffffffffffffffffffffffffffffff1660a08173ffffffffffffffffffffffffffffffffffffffff166c010000000000000000000000000281525050429050505062000216565b600081519050620000af81620001e2565b92915050565b600081519050620000c681620001fc565b92915050565b60008060408385031215620000e657620000e5620001dd565b5b6000620000f6858286016200009e565b92505060206200010985828601620000b5565b9150509250929050565b60006200012082620001a4565b91506200012d83620001a4565b9250827fffffffffffffffffffffffffffffffffffffffffffffffffffffffffffffffff03821115620001655762000164620001ae565b5b828201905092915050565b60006200017d8262000184565b9050919050565b600073ffffffffffffffffffffffffffffffffffffffff82169050919050565b6000819050919050565b7f4e487b7100000000000000000000000000000000000000000000000000000000600052601160045260246000fd5b600080fd5b620001ed8162000170565b8114620001f957600080fd5b50565b6200020781620001a4565b81146200021357600080fd5b50565b60805160a0516c01000000000000000000000000900461082262000268600039600081816102280152818161024c0152818161037201526103fa01526000818161015401526102da01526108226000f3fe60806040526004361061006b576000357c0100000000000000000000000000000000000000000000000000000000900480630fb5a6b41461007757806340d48958146100a257806347e7ef24146100cd5780638da5cb5b146100f6578063f3fef3a31461012157610072565b3661007257005b600080fd5b34801561008357600080fd5b5061008c61014a565b6040516100999190610694565b60405180910390f35b3480156100ae57600080fd5b506100b7610152565b6040516100c49190610694565b60405180910390f35b3480156100d957600080fd5b506100f460048036038101906100ef91906104ea565b610176565b005b34801561010257600080fd5b5061010b610226565b60405161011891906105d9565b60405180910390f35b34801561012d57600080fd5b50610148600480360381019061014391906104ea565b61024a565b005b6301e1338081565b7f000000000000000000000000000000000000000000000000000000000000000081565b8173ffffffffffffffffffffffffffffffffffffffff166323b872dd3330846040518463ffffffff167c01000000000000000000000000000000000000000000000000000000000281526004016101cf9392919061061d565b602060405180830381600087803b1580156101e957600080fd5b505af11580156101fd573d6000803e3d6000fd5b505050506040513d601f19601f82011682018060405250810190610221919061052a565b505050565b7f000000000000000000000000000000000000000000000000000000000000000081565b7f000000000000000000000000000000000000000000000000000000000000000073ffffffffffffffffffffffffffffffffffffffff163373ffffffffffffffffffffffffffffffffffffffff16146102d8576040517f08c379a00000000000000000000000000000000000000000000000000000000081526004016102cf90610654565b60405180910390fd5b7f000000000000000000000000000000000000000000000000000000000000000042101561033b576040517f08c379a000000000000000000000000000000000000000000000000000000000815260040161033290610674565b60405180910390fd5b600073ffffffffffffffffffffffffffffffffffffffff168273ffffffffffffffffffffffffffffffffffffffff1614156103dc577f000000000000000000000000000000000000000000000000000000000000000073ffffffffffffffffffffffffffffffffffffffff166108fc829081150290604051600060405180830381858888f193505050501580156103d6573d6000803e3d6000fd5b506104a7565b8173ffffffffffffffffffffffffffffffffffffffff1663a9059cbb7f0000000000000000000000000000000000000000000000000000000000000000836040518363ffffffff167c01000000000000000000000000000000000000000000000000000000000281526004016104539291906105f4565b602060405180830381600087803b15801561046d57600080fd5b505af1158015610481573d6000803e3d6000fd5b505050506040513d601f19601f820116820180604052508101906104a5919061052a565b505b5050565b6000813590506104ba816107a7565b92915050565b6000815190506104cf816107be565b92915050565b6000813590506104e4816107d5565b92915050565b6000806040838503121561050157610500610750565b5b600061050f858286016104ab565b9250506020610520858286016104d5565b9150509250929050565b6000602082840312156105405761053f610750565b5b600061054e848285016104c0565b91505092915050565b6105608161071a565b82525050565b61056f816106d2565b82525050565b61057e816106c0565b82525050565b60006105916019836106af565b915061059c82610755565b602082019050919050565b60006105b46017836106af565b91506105bf8261077e565b602082019050919050565b6105d381610710565b82525050565b60006020820190506105ee6000830184610566565b92915050565b60006040820190506106096000830185610557565b61061660208301846105ca565b9392505050565b60006060820190506106326000830186610575565b61063f6020830185610575565b61064c60408301846105ca565b949350505050565b6000602082019050818103600083015261066d81610584565b9050919050565b6000602082019050818103600083015261068d816105a7565b9050919050565b60006020820190506106a960008301846105ca565b92915050565b600082825260208201905092915050565b60006106cb826106f0565b9050919050565b60006106dd826106f0565b9050919050565b60008115159050919050565b600073ffffffffffffffffffffffffffffffffffffffff82169050919050565b6000819050919050565b60006107258261072c565b9050919050565b60006107378261073e565b9050919050565b6000610749826106f0565b9050919050565b600080fd5b7f4f6e6c7920746865206f776e657220697320616c6c6f77656400000000000000600082015250565b7f4f6f70732120596f752061726520746f6f206561726c79000000000000000000600082015250565b6107b0816106c0565b81146107bb57600080fd5b50565b6107c7816106e4565b81146107d257600080fd5b50565b6107de81610710565b81146107e957600080fd5b5056fea264697066735822122062c03937bbf1e19586dbcbc52336257e812682b24fd2bd70f3bef86d7203d05464736f6c63430008070033",
  "immutableReferences": {
    "711": [
      {
        "length": 32,
        "start": 340
      },
      {
        "length": 32,
        "start": 730
      }
    ],
    "713": [
      {
        "length": 32,
        "start": 552
      },
      {
        "length": 32,
        "start": 588
      },
      {
        "length": 32,
        "start": 882
      },
      {
        "length": 32,
        "start": 1018
      }
    ]
  },
  "source": "// SPDX-License-Identifier: MIT\r\npragma solidity ^0.8.0;\r\n\r\n//import \"openzeppelin-solidity/contracts/token/ERC20/utils/TokenTimelock.sol\";\r\nimport \"openzeppelin-solidity/contracts/token/ERC20/ERC20.sol\";\r\n\r\n/*\r\n * @dev end time is computed when the contract is deployed\r\n */\r\n\r\ncontract MyToken {\r\n    uint public constant duration = 365 days;\r\n    uint public immutable _endTime;\r\n    address payable public immutable owner;\r\n    \r\n    constructor(address payable _owner, uint256 _startTime) {\r\n        _endTime = block.timestamp + duration;\r\n        owner = _owner;\r\n        _startTime = block.timestamp;\r\n    \r\n    }\r\n    \r\n    function deposit(address token, uint amount) external {\r\n        IERC20(token).transferFrom(msg.sender, address(this), amount);\r\n    }\r\n    \r\n    receive() external payable {}\r\n    \r\n    function withdraw(address token, uint amount) external {\r\n        require(msg.sender == owner, 'Only the owner is allowed');\r\n        require(block.timestamp >= _endTime, 'Oops! You are too early');\r\n        if(token == address(0)) {\r\n            owner.transfer(amount);\r\n        } else {\r\n            IERC20(token).transfer(owner, amount);\r\n        }\r\n    }\r\n}\r\n\r\n\r\n     ",
  "sourcePath": "C:\\Users\\katan\\ethchallenge\\contracts\\MyToken.sol",
  "compiler": {
    "name": "solc",
    "version": "0.8.7+commit.e28d00a7.Emscripten.clang"
  },
  "schemaVersion": "3.4.3",
  "updatedAt": "2021-08-24T23:29:53.635Z",
  "devdoc": {
    "kind": "dev",
    "methods": {},
    "version": 1
  },
  "userdoc": {
    "kind": "user",
    "methods": {},
    "version": 1
  }
}