{
  "contractName": "Timelock",
  "abi": [
    {
      "inputs": [
        {
          "internalType": "address payable",
          "name": "_owner",
          "type": "address"
        }
      ],
      "stateMutability": "nonpayable",
      "type": "constructor"
    },
    {
      "inputs": [],
      "name": "duration",
      "outputs": [
        {
          "internalType": "uint256",
          "name": "",
          "type": "uint256"
        }
      ],
      "stateMutability": "view",
      "type": "function"
    },
    {
      "inputs": [],
      "name": "end",
      "outputs": [
        {
          "internalType": "uint256",
          "name": "",
          "type": "uint256"
        }
      ],
      "stateMutability": "view",
      "type": "function"
    },
    {
      "inputs": [],
      "name": "owner",
      "outputs": [
        {
          "internalType": "address payable",
          "name": "",
          "type": "address"
        }
      ],
      "stateMutability": "view",
      "type": "function"
    },
    {
      "stateMutability": "payable",
      "type": "receive"
    },
    {
      "inputs": [
        {
          "internalType": "address",
          "name": "token",
          "type": "address"
        },
        {
          "internalType": "uint256",
          "name": "amount",
          "type": "uint256"
        }
      ],
      "name": "deposit",
      "outputs": [],
      "stateMutability": "nonpayable",
      "type": "function"
    },
    {
      "inputs": [
        {
          "internalType": "address",
          "name": "token",
          "type": "address"
        },
        {
          "internalType": "uint256",
          "name": "amount",
          "type": "uint256"
        }
      ],
      "name": "withdraw",
      "outputs": [],
      "stateMutability": "nonpayable",
      "type": "function"
    }
  ],
  "bytecode": "0x60c060405234801561001057600080fd5b50604051610a24380380610a24833981810160405281019061003291906100a7565b6301e133804261004291906100d4565b608081815250508073ffffffffffffffffffffffffffffffffffffffff1660a08173ffffffffffffffffffffffffffffffffffffffff166c010000000000000000000000000281525050506101b1565b6000815190506100a18161019a565b92915050565b6000602082840312156100bd576100bc610195565b5b60006100cb84828501610092565b91505092915050565b60006100df8261015c565b91506100ea8361015c565b9250827fffffffffffffffffffffffffffffffffffffffffffffffffffffffffffffffff0382111561011f5761011e610166565b5b828201905092915050565b60006101358261013c565b9050919050565b600073ffffffffffffffffffffffffffffffffffffffff82169050919050565b6000819050919050565b7f4e487b7100000000000000000000000000000000000000000000000000000000600052601160045260246000fd5b600080fd5b6101a38161012a565b81146101ae57600080fd5b50565b60805160a0516c010000000000000000000000009004610822610202600039600081816102040152818161024c0152818161037201526103fa01526000818161022801526102da01526108226000f3fe60806040526004361061006b576000357c0100000000000000000000000000000000000000000000000000000000900480630fb5a6b41461007757806347e7ef24146100a25780638da5cb5b146100cb578063efbe1c1c146100f6578063f3fef3a31461012157610072565b3661007257005b600080fd5b34801561008357600080fd5b5061008c61014a565b6040516100999190610694565b60405180910390f35b3480156100ae57600080fd5b506100c960048036038101906100c491906104ea565b610152565b005b3480156100d757600080fd5b506100e0610202565b6040516100ed91906105d9565b60405180910390f35b34801561010257600080fd5b5061010b610226565b6040516101189190610694565b60405180910390f35b34801561012d57600080fd5b50610148600480360381019061014391906104ea565b61024a565b005b6301e1338081565b8173ffffffffffffffffffffffffffffffffffffffff166323b872dd3330846040518463ffffffff167c01000000000000000000000000000000000000000000000000000000000281526004016101ab9392919061061d565b602060405180830381600087803b1580156101c557600080fd5b505af11580156101d9573d6000803e3d6000fd5b505050506040513d601f19601f820116820180604052508101906101fd919061052a565b505050565b7f000000000000000000000000000000000000000000000000000000000000000081565b7f000000000000000000000000000000000000000000000000000000000000000081565b7f000000000000000000000000000000000000000000000000000000000000000073ffffffffffffffffffffffffffffffffffffffff163373ffffffffffffffffffffffffffffffffffffffff16146102d8576040517f08c379a00000000000000000000000000000000000000000000000000000000081526004016102cf90610654565b60405180910390fd5b7f000000000000000000000000000000000000000000000000000000000000000042101561033b576040517f08c379a000000000000000000000000000000000000000000000000000000000815260040161033290610674565b60405180910390fd5b600073ffffffffffffffffffffffffffffffffffffffff168273ffffffffffffffffffffffffffffffffffffffff1614156103dc577f000000000000000000000000000000000000000000000000000000000000000073ffffffffffffffffffffffffffffffffffffffff166108fc829081150290604051600060405180830381858888f193505050501580156103d6573d6000803e3d6000fd5b506104a7565b8173ffffffffffffffffffffffffffffffffffffffff1663a9059cbb7f0000000000000000000000000000000000000000000000000000000000000000836040518363ffffffff167c01000000000000000000000000000000000000000000000000000000000281526004016104539291906105f4565b602060405180830381600087803b15801561046d57600080fd5b505af1158015610481573d6000803e3d6000fd5b505050506040513d601f19601f820116820180604052508101906104a5919061052a565b505b5050565b6000813590506104ba816107a7565b92915050565b6000815190506104cf816107be565b92915050565b6000813590506104e4816107d5565b92915050565b6000806040838503121561050157610500610750565b5b600061050f858286016104ab565b9250506020610520858286016104d5565b9150509250929050565b6000602082840312156105405761053f610750565b5b600061054e848285016104c0565b91505092915050565b6105608161071a565b82525050565b61056f816106d2565b82525050565b61057e816106c0565b82525050565b6000610591600a836106af565b915061059c82610755565b602082019050919050565b60006105b46009836106af565b91506105bf8261077e565b602082019050919050565b6105d381610710565b82525050565b60006020820190506105ee6000830184610566565b92915050565b60006040820190506106096000830185610557565b61061660208301846105ca565b9392505050565b60006060820190506106326000830186610575565b61063f6020830185610575565b61064c60408301846105ca565b949350505050565b6000602082019050818103600083015261066d81610584565b9050919050565b6000602082019050818103600083015261068d816105a7565b9050919050565b60006020820190506106a960008301846105ca565b92915050565b600082825260208201905092915050565b60006106cb826106f0565b9050919050565b60006106dd826106f0565b9050919050565b60008115159050919050565b600073ffffffffffffffffffffffffffffffffffffffff82169050919050565b6000819050919050565b60006107258261072c565b9050919050565b60006107378261073e565b9050919050565b6000610749826106f0565b9050919050565b600080fd5b7f6f6e6c79206f776e657200000000000000000000000000000000000000000000600082015250565b7f746f6f206561726c790000000000000000000000000000000000000000000000600082015250565b6107b0816106c0565b81146107bb57600080fd5b50565b6107c7816106e4565b81146107d257600080fd5b50565b6107de81610710565b81146107e957600080fd5b5056fea26469706673582212202068bd6a7251478bf4e850d841a5211d89edb49d181b0fcdfee38480fa12ea7b64736f6c63430008070033",
  "immutableReferences": {
    "736": [
      {
        "length": 32,
        "start": 552
      },
      {
        "length": 32,
        "start": 730
      }
    ],
    "738": [
      {
        "length": 32,
        "start": 516
      },
      {
        "length": 32,
        "start": 588
      },
      {
        "length": 32,
        "start": 882
      },
      {
        "length": 32,
        "start": 1018
      }
    ]
  },
  "source": "// SPDX-License-Identifier: MIT\r\npragma solidity ^0.8.0;\r\n\r\n//import \"openzeppelin-solidity/contracts/token/ERC20/utils/TokenTimelock.sol\";\r\n// import \"openzeppelin-solidity/contracts/token/ERC20/ERC20.sol\";\r\n\r\n// /*\r\n//  * @dev end time is computed when the contract is deployed\r\n//  */\r\n\r\n// contract MyTimelock {\r\n//     uint public constant duration = 365 days;\r\n//     uint public immutable _endTime;\r\n//     address payable public immutable owner;\r\n    \r\n//     constructor(address payable _owner, uint256 _startTime) {\r\n//         _endTime = block.timestamp + duration;\r\n//         owner = _owner;\r\n//         _startTime = block.timestamp;\r\n    \r\n//     }\r\n    \r\n//     function deposit(address token, uint amount) external {\r\n//         IERC20(token).transferFrom(msg.sender, address(this), amount);\r\n//     }\r\n    \r\n//     receive() external payable {}\r\n    \r\n//     function withdraw(address token, uint amount) external {\r\n//         require(msg.sender == owner, 'Only the owner is allowed');\r\n//         require(block.timestamp >= _endTime, 'Oops! You are too early');\r\n//         if(token == address(0)) {\r\n//             owner.transfer(amount);\r\n//         } else {\r\n//             IERC20(token).transfer(owner, amount);\r\n//         }\r\n//     }\r\n// }\r\n\r\npragma solidity ^0.8.0;\r\n\r\nimport \"openzeppelin-solidity/contracts/token/ERC20/ERC20.sol\";\r\n\r\ncontract Timelock {\r\n  uint public constant duration = 365 days;\r\n  uint public immutable end;\r\n  address payable public immutable owner;\r\n\r\n  constructor(address payable _owner) {\r\n    end = block.timestamp + duration;\r\n    owner = _owner; \r\n  }\r\n\r\n  function deposit(address token, uint amount) external {\r\n    IERC20(token).transferFrom(msg.sender, address(this), amount);\r\n  }\r\n\r\n  receive() external payable {}\r\n\r\n  function withdraw(address token, uint amount) external {\r\n    require(msg.sender == owner, 'only owner');\r\n    require(block.timestamp >= end, 'too early');\r\n    if(token == address(0)) { \r\n      owner.transfer(amount);\r\n    } else {\r\n      IERC20(token).transfer(owner, amount);\r\n    }\r\n  }\r\n}\r\n\r\n     ",
  "sourcePath": "C:\\Users\\katan\\ethchallenge\\contracts\\MyTimelock.sol",
  "compiler": {
    "name": "solc",
    "version": "0.8.7+commit.e28d00a7.Emscripten.clang"
  },
  "schemaVersion": "3.4.3",
  "updatedAt": "2021-08-24T23:55:28.294Z",
  "devdoc": {
    "kind": "dev",
    "methods": {},
    "version": 1
  },
  "userdoc": {
    "kind": "user",
    "methods": {},
    "version": 1
  }
}